:1000000000308A001A28000023308400831300087F
:10001000031917280630F800F701F70B0D28F80B25
:100020000C287B30F700F70B1328800B0A288A1165
:100030000A12392803081F398300A001A101FF30EB
:10004000A20083161F149F141F159F1107309C00D8
:10005000831300308312A2008316870183122008C5
:10006000870083168601831221088600C830A3000A
:1000700004280130A0072008093C03184228A001E9
:100080000130A1072108093C031CA101831629287E
:0200900063000B
:02400E00723FFF
:00000001FF
;PIC16F877A
;CRC=718A  CREATED="17-may.-24 13:26"
